{
  "_format": "hh-sol-artifact-1",
  "contractName": "PingoContract",
  "sourceName": "contracts/PingoContract.sol",
  "abi": [
    {
      "anonymous": false,
      "inputs": [
        {
          "indexed": false,
          "internalType": "address",
          "name": "recipient",
          "type": "address"
        },
        {
          "indexed": false,
          "internalType": "uint256",
          "name": "postId",
          "type": "uint256"
        }
      ],
      "name": "AddPost",
      "type": "event"
    },
    {
      "anonymous": false,
      "inputs": [
        {
          "indexed": false,
          "internalType": "uint256",
          "name": "postId",
          "type": "uint256"
        },
        {
          "indexed": false,
          "internalType": "bool",
          "name": "isDeleted",
          "type": "bool"
        }
      ],
      "name": "DeletePost",
      "type": "event"
    },
    {
      "inputs": [
        {
          "internalType": "string",
          "name": "postText",
          "type": "string"
        },
        {
          "internalType": "string",
          "name": "postVid",
          "type": "string"
        },
        {
          "internalType": "bool",
          "name": "isDeleted",
          "type": "bool"
        }
      ],
      "name": "addPost",
      "outputs": [],
      "stateMutability": "nonpayable",
      "type": "function"
    },
    {
      "inputs": [
        {
          "internalType": "uint256",
          "name": "postId",
          "type": "uint256"
        },
        {
          "internalType": "bool",
          "name": "isDeleted",
          "type": "bool"
        }
      ],
      "name": "deletePost",
      "outputs": [],
      "stateMutability": "nonpayable",
      "type": "function"
    },
    {
      "inputs": [],
      "name": "getAllPosts",
      "outputs": [
        {
          "components": [
            {
              "internalType": "uint256",
              "name": "id",
              "type": "uint256"
            },
            {
              "internalType": "address",
              "name": "username",
              "type": "address"
            },
            {
              "internalType": "string",
              "name": "postText",
              "type": "string"
            },
            {
              "internalType": "string",
              "name": "postVid",
              "type": "string"
            },
            {
              "internalType": "bool",
              "name": "isDeleted",
              "type": "bool"
            }
          ],
          "internalType": "struct PingoContract.Post[]",
          "name": "",
          "type": "tuple[]"
        }
      ],
      "stateMutability": "view",
      "type": "function"
    },
    {
      "inputs": [],
      "name": "getMyPosts",
      "outputs": [
        {
          "components": [
            {
              "internalType": "uint256",
              "name": "id",
              "type": "uint256"
            },
            {
              "internalType": "address",
              "name": "username",
              "type": "address"
            },
            {
              "internalType": "string",
              "name": "postText",
              "type": "string"
            },
            {
              "internalType": "string",
              "name": "postVid",
              "type": "string"
            },
            {
              "internalType": "bool",
              "name": "isDeleted",
              "type": "bool"
            }
          ],
          "internalType": "struct PingoContract.Post[]",
          "name": "",
          "type": "tuple[]"
        }
      ],
      "stateMutability": "view",
      "type": "function"
    }
  ],
  "bytecode": "0x608060405234801561001057600080fd5b5061140b806100206000396000f3fe608060405234801561001057600080fd5b506004361061004c5760003560e01c806330561100146100515780635950eb5b1461006f5780636103eb3c1461008d5780638c855bc7146100a9575b600080fd5b6100596100c5565b60405161006691906110dd565b60405180910390f35b610077610543565b60405161008491906110dd565b60405180910390f35b6100a760048036038101906100a29190610e60565b610a2b565b005b6100c360048036038101906100be9190610edf565b610bdc565b005b60606000808054905067ffffffffffffffff81111561010d577f4e487b7100000000000000000000000000000000000000000000000000000000600052604160045260246000fd5b60405190808252806020026020018201604052801561014657816020015b610133610ce4565b81526020019060019003908161012b5790505b5090506000805b600080549050811015610417576000151560008281548110610198577f4e487b7100000000000000000000000000000000000000000000000000000000600052603260045260246000fd5b906000526020600020906005020160040160009054906101000a900460ff161515141561040457600081815481106101f9577f4e487b7100000000000000000000000000000000000000000000000000000000600052603260045260246000fd5b90600052602060002090600502016040518060a0016040529081600082015481526020016001820160009054906101000a900473ffffffffffffffffffffffffffffffffffffffff1673ffffffffffffffffffffffffffffffffffffffff1673ffffffffffffffffffffffffffffffffffffffff1681526020016002820180546102829061125d565b80601f01602080910402602001604051908101604052809291908181526020018280546102ae9061125d565b80156102fb5780601f106102d0576101008083540402835291602001916102fb565b820191906000526020600020905b8154815290600101906020018083116102de57829003601f168201915b505050505081526020016003820180546103149061125d565b80601f01602080910402602001604051908101604052809291908181526020018280546103409061125d565b801561038d5780601f106103625761010080835404028352916020019161038d565b820191906000526020600020905b81548152906001019060200180831161037057829003601f168201915b505050505081526020016004820160009054906101000a900460ff1615151515815250508383815181106103ea577f4e487b7100000000000000000000000000000000000000000000000000000000600052603260045260246000fd5b60200260200101819052508180610400906112c0565b9250505b808061040f906112c0565b91505061014d565b5060008167ffffffffffffffff81111561045a577f4e487b7100000000000000000000000000000000000000000000000000000000600052604160045260246000fd5b60405190808252806020026020018201604052801561049357816020015b610480610ce4565b8152602001906001900390816104785790505b50905060005b82811015610539578381815181106104da577f4e487b7100000000000000000000000000000000000000000000000000000000600052603260045260246000fd5b602002602001015182828151811061051b577f4e487b7100000000000000000000000000000000000000000000000000000000600052603260045260246000fd5b60200260200101819052508080610531906112c0565b915050610499565b5080935050505090565b60606000808054905067ffffffffffffffff81111561058b577f4e487b7100000000000000000000000000000000000000000000000000000000600052604160045260246000fd5b6040519080825280602002602001820160405280156105c457816020015b6105b1610ce4565b8152602001906001900390816105a95790505b5090506000805b6000805490508110156108ff573373ffffffffffffffffffffffffffffffffffffffff166001600083815260200190815260200160002060009054906101000a900473ffffffffffffffffffffffffffffffffffffffff1673ffffffffffffffffffffffffffffffffffffffff161480156106a25750600015156000828154811061067f577f4e487b7100000000000000000000000000000000000000000000000000000000600052603260045260246000fd5b906000526020600020906005020160040160009054906101000a900460ff161515145b156108ec57600081815481106106e1577f4e487b7100000000000000000000000000000000000000000000000000000000600052603260045260246000fd5b90600052602060002090600502016040518060a0016040529081600082015481526020016001820160009054906101000a900473ffffffffffffffffffffffffffffffffffffffff1673ffffffffffffffffffffffffffffffffffffffff1673ffffffffffffffffffffffffffffffffffffffff16815260200160028201805461076a9061125d565b80601f01602080910402602001604051908101604052809291908181526020018280546107969061125d565b80156107e35780601f106107b8576101008083540402835291602001916107e3565b820191906000526020600020905b8154815290600101906020018083116107c657829003601f168201915b505050505081526020016003820180546107fc9061125d565b80601f01602080910402602001604051908101604052809291908181526020018280546108289061125d565b80156108755780601f1061084a57610100808354040283529160200191610875565b820191906000526020600020905b81548152906001019060200180831161085857829003601f168201915b505050505081526020016004820160009054906101000a900460ff1615151515815250508383815181106108d2577f4e487b7100000000000000000000000000000000000000000000000000000000600052603260045260246000fd5b602002602001018190525081806108e8906112c0565b9250505b80806108f7906112c0565b9150506105cb565b5060008167ffffffffffffffff811115610942577f4e487b7100000000000000000000000000000000000000000000000000000000600052604160045260246000fd5b60405190808252806020026020018201604052801561097b57816020015b610968610ce4565b8152602001906001900390816109605790505b50905060005b82811015610a21578381815181106109c2577f4e487b7100000000000000000000000000000000000000000000000000000000600052603260045260246000fd5b6020026020010151828281518110610a03577f4e487b7100000000000000000000000000000000000000000000000000000000600052603260045260246000fd5b60200260200101819052508080610a19906112c0565b915050610981565b5080935050505090565b60008080549050905060006040518060a001604052808381526020013373ffffffffffffffffffffffffffffffffffffffff16815260200186815260200185815260200184151581525090806001815401808255809150506001900390600052602060002090600502016000909190919091506000820151816000015560208201518160010160006101000a81548173ffffffffffffffffffffffffffffffffffffffff021916908373ffffffffffffffffffffffffffffffffffffffff1602179055506040820151816002019080519060200190610b0b929190610d2b565b506060820151816003019080519060200190610b28929190610d2b565b5060808201518160040160006101000a81548160ff0219169083151502179055505050336001600083815260200190815260200160002060006101000a81548173ffffffffffffffffffffffffffffffffffffffff021916908373ffffffffffffffffffffffffffffffffffffffff1602179055507f211310f5bdfd60139328b0e0b1235a8d92df3ccfc99b9b80da0d81cbac493aea3382604051610bce9291906110b4565b60405180910390a150505050565b3373ffffffffffffffffffffffffffffffffffffffff166001600084815260200190815260200160002060009054906101000a900473ffffffffffffffffffffffffffffffffffffffff1673ffffffffffffffffffffffffffffffffffffffff161415610ce0578060008381548110610c7e577f4e487b7100000000000000000000000000000000000000000000000000000000600052603260045260246000fd5b906000526020600020906005020160040160006101000a81548160ff0219169083151502179055507f50de60758261258765d60f3764f52b012fb4289c1120010bf8b34f7a7976f8158282604051610cd79291906110ff565b60405180910390a15b5050565b6040518060a0016040528060008152602001600073ffffffffffffffffffffffffffffffffffffffff16815260200160608152602001606081526020016000151581525090565b828054610d379061125d565b90600052602060002090601f016020900481019282610d595760008555610da0565b82601f10610d7257805160ff1916838001178555610da0565b82800160010185558215610da0579182015b82811115610d9f578251825591602001919060010190610d84565b5b509050610dad9190610db1565b5090565b5b80821115610dca576000816000905550600101610db2565b5090565b6000610de1610ddc8461114d565b611128565b905082815260208101848484011115610df957600080fd5b610e0484828561121b565b509392505050565b600081359050610e1b816113a7565b92915050565b600082601f830112610e3257600080fd5b8135610e42848260208601610dce565b91505092915050565b600081359050610e5a816113be565b92915050565b600080600060608486031215610e7557600080fd5b600084013567ffffffffffffffff811115610e8f57600080fd5b610e9b86828701610e21565b935050602084013567ffffffffffffffff811115610eb857600080fd5b610ec486828701610e21565b9250506040610ed586828701610e0c565b9150509250925092565b60008060408385031215610ef257600080fd5b6000610f0085828601610e4b565b9250506020610f1185828601610e0c565b9150509250929050565b6000610f278383611019565b905092915050565b610f38816111d3565b82525050565b610f47816111d3565b82525050565b6000610f588261118e565b610f6281856111b1565b935083602082028501610f748561117e565b8060005b85811015610fb05784840389528151610f918582610f1b565b9450610f9c836111a4565b925060208a01995050600181019050610f78565b50829750879550505050505092915050565b610fcb816111e5565b82525050565b610fda816111e5565b82525050565b6000610feb82611199565b610ff581856111c2565b935061100581856020860161122a565b61100e81611396565b840191505092915050565b600060a0830160008301516110316000860182611096565b5060208301516110446020860182610f2f565b506040830151848203604086015261105c8282610fe0565b915050606083015184820360608601526110768282610fe0565b915050608083015161108b6080860182610fc2565b508091505092915050565b61109f81611211565b82525050565b6110ae81611211565b82525050565b60006040820190506110c96000830185610f3e565b6110d660208301846110a5565b9392505050565b600060208201905081810360008301526110f78184610f4d565b905092915050565b600060408201905061111460008301856110a5565b6111216020830184610fd1565b9392505050565b6000611132611143565b905061113e828261128f565b919050565b6000604051905090565b600067ffffffffffffffff82111561116857611167611367565b5b61117182611396565b9050602081019050919050565b6000819050602082019050919050565b600081519050919050565b600081519050919050565b6000602082019050919050565b600082825260208201905092915050565b600082825260208201905092915050565b60006111de826111f1565b9050919050565b60008115159050919050565b600073ffffffffffffffffffffffffffffffffffffffff82169050919050565b6000819050919050565b82818337600083830152505050565b60005b8381101561124857808201518184015260208101905061122d565b83811115611257576000848401525b50505050565b6000600282049050600182168061127557607f821691505b6020821081141561128957611288611338565b5b50919050565b61129882611396565b810181811067ffffffffffffffff821117156112b7576112b6611367565b5b80604052505050565b60006112cb82611211565b91507fffffffffffffffffffffffffffffffffffffffffffffffffffffffffffffffff8214156112fe576112fd611309565b5b600182019050919050565b7f4e487b7100000000000000000000000000000000000000000000000000000000600052601160045260246000fd5b7f4e487b7100000000000000000000000000000000000000000000000000000000600052602260045260246000fd5b7f4e487b7100000000000000000000000000000000000000000000000000000000600052604160045260246000fd5b6000601f19601f8301169050919050565b6113b0816111e5565b81146113bb57600080fd5b50565b6113c781611211565b81146113d257600080fd5b5056fea26469706673582212209d3f8b7ffb1027c2754cef2a5336a5985612bd0c38c768161ba341d152db605d64736f6c63430008040033",
  "linkReferences": {},
  "deployedLinkReferences": {}
}